{
  "_format": "hh-sol-artifact-1",
  "contractName": "ResearchToken",
  "sourceName": "contracts/ResearchToken.sol",
  "abi": [
    {
      "inputs": [
        {
          "internalType": "string",
          "name": "name",
          "type": "string"
        },
        {
          "internalType": "string",
          "name": "symbol",
          "type": "string"
        },
        {
          "internalType": "address",
          "name": "_researcher",
          "type": "address"
        },
        {
          "internalType": "string",
          "name": "_pdfHash",
          "type": "string"
        },
        {
          "internalType": "string",
          "name": "_imageHash",
          "type": "string"
        },
        {
          "internalType": "string",
          "name": "_memeDescription",
          "type": "string"
        },
        {
          "internalType": "uint256",
          "name": "_tokenPrice",
          "type": "uint256"
        },
        {
          "internalType": "uint256",
          "name": "initialSupply",
          "type": "uint256"
        }
      ],
      "stateMutability": "nonpayable",
      "type": "constructor"
    },
    {
      "inputs": [
        {
          "internalType": "address",
          "name": "spender",
          "type": "address"
        },
        {
          "internalType": "uint256",
          "name": "allowance",
          "type": "uint256"
        },
        {
          "internalType": "uint256",
          "name": "needed",
          "type": "uint256"
        }
      ],
      "name": "ERC20InsufficientAllowance",
      "type": "error"
    },
    {
      "inputs": [
        {
          "internalType": "address",
          "name": "sender",
          "type": "address"
        },
        {
          "internalType": "uint256",
          "name": "balance",
          "type": "uint256"
        },
        {
          "internalType": "uint256",
          "name": "needed",
          "type": "uint256"
        }
      ],
      "name": "ERC20InsufficientBalance",
      "type": "error"
    },
    {
      "inputs": [
        {
          "internalType": "address",
          "name": "approver",
          "type": "address"
        }
      ],
      "name": "ERC20InvalidApprover",
      "type": "error"
    },
    {
      "inputs": [
        {
          "internalType": "address",
          "name": "receiver",
          "type": "address"
        }
      ],
      "name": "ERC20InvalidReceiver",
      "type": "error"
    },
    {
      "inputs": [
        {
          "internalType": "address",
          "name": "sender",
          "type": "address"
        }
      ],
      "name": "ERC20InvalidSender",
      "type": "error"
    },
    {
      "inputs": [
        {
          "internalType": "address",
          "name": "spender",
          "type": "address"
        }
      ],
      "name": "ERC20InvalidSpender",
      "type": "error"
    },
    {
      "anonymous": false,
      "inputs": [
        {
          "indexed": true,
          "internalType": "address",
          "name": "owner",
          "type": "address"
        },
        {
          "indexed": true,
          "internalType": "address",
          "name": "spender",
          "type": "address"
        },
        {
          "indexed": false,
          "internalType": "uint256",
          "name": "value",
          "type": "uint256"
        }
      ],
      "name": "Approval",
      "type": "event"
    },
    {
      "anonymous": false,
      "inputs": [
        {
          "indexed": true,
          "internalType": "address",
          "name": "from",
          "type": "address"
        },
        {
          "indexed": true,
          "internalType": "address",
          "name": "to",
          "type": "address"
        },
        {
          "indexed": false,
          "internalType": "uint256",
          "name": "value",
          "type": "uint256"
        }
      ],
      "name": "Transfer",
      "type": "event"
    },
    {
      "inputs": [
        {
          "internalType": "address",
          "name": "owner",
          "type": "address"
        },
        {
          "internalType": "address",
          "name": "spender",
          "type": "address"
        }
      ],
      "name": "allowance",
      "outputs": [
        {
          "internalType": "uint256",
          "name": "",
          "type": "uint256"
        }
      ],
      "stateMutability": "view",
      "type": "function"
    },
    {
      "inputs": [
        {
          "internalType": "address",
          "name": "spender",
          "type": "address"
        },
        {
          "internalType": "uint256",
          "name": "value",
          "type": "uint256"
        }
      ],
      "name": "approve",
      "outputs": [
        {
          "internalType": "bool",
          "name": "",
          "type": "bool"
        }
      ],
      "stateMutability": "nonpayable",
      "type": "function"
    },
    {
      "inputs": [
        {
          "internalType": "address",
          "name": "account",
          "type": "address"
        }
      ],
      "name": "balanceOf",
      "outputs": [
        {
          "internalType": "uint256",
          "name": "",
          "type": "uint256"
        }
      ],
      "stateMutability": "view",
      "type": "function"
    },
    {
      "inputs": [
        {
          "internalType": "uint256",
          "name": "amount",
          "type": "uint256"
        }
      ],
      "name": "buyTokens",
      "outputs": [],
      "stateMutability": "payable",
      "type": "function"
    },
    {
      "inputs": [],
      "name": "decimals",
      "outputs": [
        {
          "internalType": "uint8",
          "name": "",
          "type": "uint8"
        }
      ],
      "stateMutability": "view",
      "type": "function"
    },
    {
      "inputs": [],
      "name": "imageHash",
      "outputs": [
        {
          "internalType": "string",
          "name": "",
          "type": "string"
        }
      ],
      "stateMutability": "view",
      "type": "function"
    },
    {
      "inputs": [],
      "name": "isActive",
      "outputs": [
        {
          "internalType": "bool",
          "name": "",
          "type": "bool"
        }
      ],
      "stateMutability": "view",
      "type": "function"
    },
    {
      "inputs": [],
      "name": "memeDescription",
      "outputs": [
        {
          "internalType": "string",
          "name": "",
          "type": "string"
        }
      ],
      "stateMutability": "view",
      "type": "function"
    },
    {
      "inputs": [],
      "name": "name",
      "outputs": [
        {
          "internalType": "string",
          "name": "",
          "type": "string"
        }
      ],
      "stateMutability": "view",
      "type": "function"
    },
    {
      "inputs": [],
      "name": "pdfHash",
      "outputs": [
        {
          "internalType": "string",
          "name": "",
          "type": "string"
        }
      ],
      "stateMutability": "view",
      "type": "function"
    },
    {
      "inputs": [],
      "name": "researcher",
      "outputs": [
        {
          "internalType": "address",
          "name": "",
          "type": "address"
        }
      ],
      "stateMutability": "view",
      "type": "function"
    },
    {
      "inputs": [],
      "name": "symbol",
      "outputs": [
        {
          "internalType": "string",
          "name": "",
          "type": "string"
        }
      ],
      "stateMutability": "view",
      "type": "function"
    },
    {
      "inputs": [],
      "name": "toggleActive",
      "outputs": [],
      "stateMutability": "nonpayable",
      "type": "function"
    },
    {
      "inputs": [],
      "name": "tokenPrice",
      "outputs": [
        {
          "internalType": "uint256",
          "name": "",
          "type": "uint256"
        }
      ],
      "stateMutability": "view",
      "type": "function"
    },
    {
      "inputs": [],
      "name": "totalSupply",
      "outputs": [
        {
          "internalType": "uint256",
          "name": "",
          "type": "uint256"
        }
      ],
      "stateMutability": "view",
      "type": "function"
    },
    {
      "inputs": [
        {
          "internalType": "address",
          "name": "to",
          "type": "address"
        },
        {
          "internalType": "uint256",
          "name": "value",
          "type": "uint256"
        }
      ],
      "name": "transfer",
      "outputs": [
        {
          "internalType": "bool",
          "name": "",
          "type": "bool"
        }
      ],
      "stateMutability": "nonpayable",
      "type": "function"
    },
    {
      "inputs": [
        {
          "internalType": "address",
          "name": "from",
          "type": "address"
        },
        {
          "internalType": "address",
          "name": "to",
          "type": "address"
        },
        {
          "internalType": "uint256",
          "name": "value",
          "type": "uint256"
        }
      ],
      "name": "transferFrom",
      "outputs": [
        {
          "internalType": "bool",
          "name": "",
          "type": "bool"
        }
      ],
      "stateMutability": "nonpayable",
      "type": "function"
    },
    {
      "inputs": [
        {
          "internalType": "uint256",
          "name": "newPrice",
          "type": "uint256"
        }
      ],
      "name": "updateTokenPrice",
      "outputs": [],
      "stateMutability": "nonpayable",
      "type": "function"
    }
  ],
  "bytecode": "0x608060405234801561001057600080fd5b506040516113dc3803806113dc83398101604081905261002f91610312565b8787600361003d83826104ac565b50600461004a82826104ac565b5050600580546001600160a01b0319166001600160a01b03891617905550600661007486826104ac565b50600761008185826104ac565b50600861008e84826104ac565b506009829055600a805460ff191660011790556100c7866100ad601290565b6100b890600a610669565b6100c2908461067f565b6100d4565b50505050505050506106a9565b6001600160a01b0382166101035760405163ec442f0560e01b8152600060048201526024015b60405180910390fd5b61010f60008383610113565b5050565b6001600160a01b03831661013e5780600260008282546101339190610696565b909155506101b09050565b6001600160a01b038316600090815260208190526040902054818110156101915760405163391434e360e21b81526001600160a01b038516600482015260248101829052604481018390526064016100fa565b6001600160a01b03841660009081526020819052604090209082900390555b6001600160a01b0382166101cc576002805482900390556101eb565b6001600160a01b03821660009081526020819052604090208054820190555b816001600160a01b0316836001600160a01b03167fddf252ad1be2c89b69c2b068fc378daa952ba7f163c4a11628f55a4df523b3ef8360405161023091815260200190565b60405180910390a3505050565b634e487b7160e01b600052604160045260246000fd5b600082601f83011261026457600080fd5b81516001600160401b0381111561027d5761027d61023d565b604051601f8201601f19908116603f011681016001600160401b03811182821017156102ab576102ab61023d565b6040528181528382016020018510156102c357600080fd5b60005b828110156102e2576020818601810151838301820152016102c6565b506000918101602001919091529392505050565b80516001600160a01b038116811461030d57600080fd5b919050565b600080600080600080600080610100898b03121561032f57600080fd5b88516001600160401b0381111561034557600080fd5b6103518b828c01610253565b60208b015190995090506001600160401b0381111561036f57600080fd5b61037b8b828c01610253565b97505061038a60408a016102f6565b60608a01519096506001600160401b038111156103a657600080fd5b6103b28b828c01610253565b60808b015190965090506001600160401b038111156103d057600080fd5b6103dc8b828c01610253565b60a08b015190955090506001600160401b038111156103fa57600080fd5b6104068b828c01610253565b60c08b015160e0909b0151999c989b509699959894979350505050565b600181811c9082168061043757607f821691505b60208210810361045757634e487b7160e01b600052602260045260246000fd5b50919050565b601f8211156104a757806000526020600020601f840160051c810160208510156104845750805b601f840160051c820191505b818110156104a45760008155600101610490565b50505b505050565b81516001600160401b038111156104c5576104c561023d565b6104d9816104d38454610423565b8461045d565b6020601f82116001811461050d57600083156104f55750848201515b600019600385901b1c1916600184901b1784556104a4565b600084815260208120601f198516915b8281101561053d578785015182556020948501946001909201910161051d565b508482101561055b5786840151600019600387901b60f8161c191681555b50505050600190811b01905550565b634e487b7160e01b600052601160045260246000fd5b6001815b60018411156105bb5780850481111561059f5761059f61056a565b60018416156105ad57908102905b60019390931c928002610584565b935093915050565b6000826105d257506001610663565b816105df57506000610663565b81600181146105f557600281146105ff5761061b565b6001915050610663565b60ff8411156106105761061061056a565b50506001821b610663565b5060208310610133831016604e8410600b841016171561063e575081810a610663565b61064b6000198484610580565b806000190482111561065f5761065f61056a565b0290505b92915050565b600061067860ff8416836105c3565b9392505050565b80820281158282048414176106635761066361056a565b808201808211156106635761066361056a565b610d24806106b86000396000f3fe6080604052600436106101095760003560e01c806351605d801161009557806395d89b411161006457806395d89b41146102c1578063a9059cbb146102d6578063b9b1e284146102f6578063dd62ed3e1461030b578063faff287c1461035157600080fd5b806351605d8014610240578063676c0d771461025557806370a08231146102755780637ff9b596146102ab57600080fd5b806322f3e2d4116100dc57806322f3e2d4146101c057806323b872dd146101da57806329c68dc1146101fa578063313ce567146102115780633610724e1461022d57600080fd5b806306fdde031461010e578063095ea7b31461013957806318160ddd146101695780631dc0a6a514610188575b600080fd5b34801561011a57600080fd5b50610123610366565b6040516101309190610a3f565b60405180910390f35b34801561014557600080fd5b50610159610154366004610aa9565b6103f8565b6040519015158152602001610130565b34801561017557600080fd5b506002545b604051908152602001610130565b34801561019457600080fd5b506005546101a8906001600160a01b031681565b6040516001600160a01b039091168152602001610130565b3480156101cc57600080fd5b50600a546101599060ff1681565b3480156101e657600080fd5b506101596101f5366004610ad3565b610412565b34801561020657600080fd5b5061020f610436565b005b34801561021d57600080fd5b5060405160128152602001610130565b61020f61023b366004610b10565b6104b3565b34801561024c57600080fd5b50610123610632565b34801561026157600080fd5b5061020f610270366004610b10565b6106c0565b34801561028157600080fd5b5061017a610290366004610b29565b6001600160a01b031660009081526020819052604090205490565b3480156102b757600080fd5b5061017a60095481565b3480156102cd57600080fd5b5061012361071f565b3480156102e257600080fd5b506101596102f1366004610aa9565b61072e565b34801561030257600080fd5b5061012361073c565b34801561031757600080fd5b5061017a610326366004610b4b565b6001600160a01b03918216600090815260016020908152604080832093909416825291909152205490565b34801561035d57600080fd5b50610123610749565b60606003805461037590610b7e565b80601f01602080910402602001604051908101604052809291908181526020018280546103a190610b7e565b80156103ee5780601f106103c3576101008083540402835291602001916103ee565b820191906000526020600020905b8154815290600101906020018083116103d157829003601f168201915b5050505050905090565b600033610406818585610756565b60019150505b92915050565b600033610420858285610763565b61042b8585856107e1565b506001949350505050565b6005546001600160a01b0316331461049f5760405162461bcd60e51b815260206004820152602160248201527f4f6e6c7920726573656172636865722063616e20746f67676c652073746174756044820152607360f81b60648201526084015b60405180910390fd5b600a805460ff19811660ff90911615179055565b600a5460ff166105055760405162461bcd60e51b815260206004820152601860248201527f546f6b656e2073616c65206973206e6f742061637469766500000000000000006044820152606401610496565b806009546105139190610bce565b34146105615760405162461bcd60e51b815260206004820152601860248201527f496e636f7272656374207061796d656e7420616d6f756e7400000000000000006044820152606401610496565b6005546040516001600160a01b0390911690600090829034908381818185875af1925050503d80600081146105b2576040519150601f19603f3d011682016040523d82523d6000602084013e6105b7565b606091505b50509050806106015760405162461bcd60e51b815260206004820152601660248201527511985a5b1959081d1bc81cd95b99081c185e5b595b9d60521b6044820152606401610496565b60055461062d906001600160a01b03163361061e6012600a610ccc565b6106289087610bce565b6107e1565b505050565b6007805461063f90610b7e565b80601f016020809104026020016040519081016040528092919081815260200182805461066b90610b7e565b80156106b85780601f1061068d576101008083540402835291602001916106b8565b820191906000526020600020905b81548152906001019060200180831161069b57829003601f168201915b505050505081565b6005546001600160a01b0316331461071a5760405162461bcd60e51b815260206004820181905260248201527f4f6e6c7920726573656172636865722063616e207570646174652070726963656044820152606401610496565b600955565b60606004805461037590610b7e565b6000336104068185856107e1565b6006805461063f90610b7e565b6008805461063f90610b7e565b61062d8383836001610840565b6001600160a01b0383811660009081526001602090815260408083209386168352929052205460001981146107db57818110156107cc57604051637dc7a0d960e11b81526001600160a01b03841660048201526024810182905260448101839052606401610496565b6107db84848484036000610840565b50505050565b6001600160a01b03831661080b57604051634b637e8f60e11b815260006004820152602401610496565b6001600160a01b0382166108355760405163ec442f0560e01b815260006004820152602401610496565b61062d838383610915565b6001600160a01b03841661086a5760405163e602df0560e01b815260006004820152602401610496565b6001600160a01b03831661089457604051634a1406b160e11b815260006004820152602401610496565b6001600160a01b03808516600090815260016020908152604080832093871683529290522082905580156107db57826001600160a01b0316846001600160a01b03167f8c5be1e5ebec7d5bd14f71427d1e84f3dd0314c0f7b2291e5b200ac8c7c3b9258460405161090791815260200190565b60405180910390a350505050565b6001600160a01b0383166109405780600260008282546109359190610cdb565b909155506109b29050565b6001600160a01b038316600090815260208190526040902054818110156109935760405163391434e360e21b81526001600160a01b03851660048201526024810182905260448101839052606401610496565b6001600160a01b03841660009081526020819052604090209082900390555b6001600160a01b0382166109ce576002805482900390556109ed565b6001600160a01b03821660009081526020819052604090208054820190555b816001600160a01b0316836001600160a01b03167fddf252ad1be2c89b69c2b068fc378daa952ba7f163c4a11628f55a4df523b3ef83604051610a3291815260200190565b60405180910390a3505050565b602081526000825180602084015260005b81811015610a6d5760208186018101516040868401015201610a50565b506000604082850101526040601f19601f83011684010191505092915050565b80356001600160a01b0381168114610aa457600080fd5b919050565b60008060408385031215610abc57600080fd5b610ac583610a8d565b946020939093013593505050565b600080600060608486031215610ae857600080fd5b610af184610a8d565b9250610aff60208501610a8d565b929592945050506040919091013590565b600060208284031215610b2257600080fd5b5035919050565b600060208284031215610b3b57600080fd5b610b4482610a8d565b9392505050565b60008060408385031215610b5e57600080fd5b610b6783610a8d565b9150610b7560208401610a8d565b90509250929050565b600181811c90821680610b9257607f821691505b602082108103610bb257634e487b7160e01b600052602260045260246000fd5b50919050565b634e487b7160e01b600052601160045260246000fd5b808202811582820484141761040c5761040c610bb8565b6001815b6001841115610c2057808504811115610c0457610c04610bb8565b6001841615610c1257908102905b60019390931c928002610be9565b935093915050565b600082610c375750600161040c565b81610c445750600061040c565b8160018114610c5a5760028114610c6457610c80565b600191505061040c565b60ff841115610c7557610c75610bb8565b50506001821b61040c565b5060208310610133831016604e8410600b8410161715610ca3575081810a61040c565b610cb06000198484610be5565b8060001904821115610cc457610cc4610bb8565b029392505050565b6000610b4460ff841683610c28565b8082018082111561040c5761040c610bb856fea2646970667358221220078c88f2e3ddd8bc6ca860c127907d37858174064269985a581f576fcb0fc81d64736f6c634300081b0033",
  "linkReferences": {},
  "deployedLinkReferences": {}
}